:0400000087EF2CF06A
:1000080000C015F0F2A404D0899A480ED56EF29477
:10001800A1A210D03750040A05E18A96376A2894BD
:10002800B19003D028B48A76372AFF0EB36E910EAA
:10003800B26EA1929EA02CD03650040A03E1366A13
:10004800288001D0362A0101E851130A0AE1E86B39
:1000580061C07BF062C07CF00001616B626B288A32
:1000680002D00101E82B0101D751E9190BE163C066
:10007800DCF164C0DDF10001636B646B0101D76BD7
:10008800288801D0D72BE70ECF6E960ECE6E9E90A5
:10009800F2A218D00001634B642B614B622B3450E1
:1000A800000A05E1898A16C0D6FFC80ED56E28A6B3
:1000B80008D02884376A8A86FF0EB36E910EB26E16
:0A00C800B180F29215C000F01100A3
:1000D2000B820BAE73EF00F00368026801680068E0
:0800E2000A360232FF0E120083
:0E00EA00026A016A006A086A036A000E1200C8
:1000F8000B840BAE87EF00F0010E036E026A016AF3
:0A010800006A0A360232FF0E1200F0
:080112000AAE029E000E12006D
:04011A0000001200CF
:0A011E00070E0D6E0D2EFED7120025
:100128000450085E0550D8A0053C095E0650D8A0CA
:10013800063C0A5E0750D8A0073C0B5E0336070E44
:100148000C6E0334083609360A360B36045003A001
:100158000ED0085E0550D8A0053C095E0650D8A010
:10016800063C0A5E0750D8A0073C0B5E0DD0082657
:100178000550D8B0053C09260650D8B0063C0A26DA
:100188000750D8B0073C0B2603360C2EDAD70234BA
:10019800083609360A360B36045003A00ED0085E1E
:1001A8000550D8A0053C095E0650D8A0063C0A5E5A
:1001B8000750D8A0073C0B5E0DD008260550D8B0D4
:1001C800053C09260650D8B0063C0A260750D8B088
:1001D800073C0B260236070E0C6E02340836093629
:1001E8000A360B36045002A00ED0085E0550D8A07F
:1001F800053C095E0650D8A0063C0A5E0750D8A008
:10020800073C0B5E0DD008260550D8B0053C0926E2
:100218000650D8B0063C0A260750D8B0073C0B2633
:1002280002360C2EDAD70134083609360A360B3670
:10023800045002A00ED0085E0550D8A0053C095E07
:100248000650D8A0063C0A5E0750D8A0073C0B5EB3
:100258000DD008260550D8B0053C09260650D8B060
:10026800063C0A260750D8B0073C0B260136070E75
:100278000C6E0134083609360A360B36045001A0D4
:100288000ED0085E0550D8A0053C095E0650D8A0DF
:10029800063C0A5E0750D8A0073C0B5E0DD0082626
:1002A8000550D8B0053C09260650D8B0063C0A26A9
:1002B8000750D8B0073C0B2601360C2EDAD700348D
:1002C800083609360A360B36045001A00ED0085EEF
:1002D8000550D8A0053C095E0650D8A0063C0A5E29
:1002E8000750D8A0073C0B5E0DD008260550D8B0A3
:1002F800053C09260650D8B0063C0A260750D8B057
:10030800073C0B260036070E0C6E003408360936FB
:100318000A360B36045000A00ED0085E0550D8A04F
:10032800053C095E0650D8A0063C0A5E0750D8A0D6
:10033800073C0B5E0DD008260550D8B0053C0926B1
:100348000650D8B0063C0A260750D8B0073C0B2602
:1003580000360C2EDAD700B00ED00450082605500F
:10036800D8B0053C09260650D8B0063C0A260750E6
:08037800D8B0073C0B2612006F
:100380000B1E0A1E091E081E082AD8B4092AD8B452
:080390000A2AD8B40B2A12005E
:080398000B6A0B86FF0E120038
:1003A0000A6A0350D8A40A800750D8A40A820A50C7
:1003B000D8B433EF02F0030AD8B4ECEF01F00AB07E
:1003C000E7EF01F006AE31EF02F02FEF02F002AEE0
:1003D0002FEF02F031EF02F00250800B0A6E029E06
:1003E0000650800B069E0A18D8B4FDEF01F00A50A3
:1003F000D8B42FEF02F031EF02F00750035CD8B40D
:1004000007EF02F0D8A023EF02F029EF02F0065028
:10041000025CD8B411EF02F0D8A023EF02F029EF6C
:1004200002F00550015CD8B41BEF02F0D8A023EF16
:1004300002F029EF02F00450005CD8B433EF02F070
:10044000D8B029EF02F00A52D8B431EF02F02FEF02
:1004500002F00A52D8B42FEF02F031EF02F0D88048
:0E0460001200D8901200D880D884120012002A
:10046E000CB079EF02F00CA21FEF03F00E6A000E33
:10047E00026490EF02F0F00E0214D8A45BEF02F0CB
:10048E00023A01380F0B02260138F00B016E0038CC
:10049E000F0B01260038F00B006E08380F0B0026EC
:1004AE000838F00B086E0E84D89002BE74EF02F07E
:1004BE0008360036013602360E2A02BE74EF02F0FE
:1004CE0008360036013602360E2A02BE74EF02F0EE
:1004DE0008360036013602360E2A0E50036415EF2A
:1004EE0003F0035E0BBC08AE1AEF03F0D880800E4B
:1004FE0008640030000E002201220222D8A01AEF5A
:10050E0003F0023201320032034A1FEF03F01AEFFA
:10051E0003F001C002F000C001F008C000F0086A4C
:10052E00000E0E860264C7EF02F0F00E0214D8A47D
:10053E00AFEF02F0023A01380F0B02260138F00B32
:10054E00016E00380F0B01260038F00B006E0E8482
:10055E00D89002BE74EF02F00036013602360E2A33
:10056E0002BE74EF02F00036013602360E2A02BECB
:10057E0074EF02F00036013602360E2A74EF02F0E6
:10058E0001C002F000C001F0006A000E0E960E8847
:10059E000264F4EF02F0F00E0214D8A4DFEF02F0C2
:1005AE00023A01380F0B02260138F00B016E0E8451
:1005BE00D89002BE74EF02F0013602360E2A02BE49
:1005CE0074EF02F0013602360E2A02BE74EF02F00C
:1005DE00013602360E2A74EF02F001C002F0016AF3
:1005EE00000E0E86026424EF03F0F00E0214D8A45F
:1005FE0003EF03F0023A0E84D89002BE74EF02F0BD
:10060E0002360E2A02BE74EF02F002360E2A02BE27
:10061E0074EF02F002360E2A74EF02F0010E0C6E29
:10062E0064DD27EF03F0020E0C6E6CDD27EF03F096
:10063E00040E0C6E47DD27EF03F0080E0C6E4EDD38
:02064E00120098
:100650000B6A0A6A096A00500402F4CF09F0F3CF6A
:1006600008F001500502F4CF0BF0F3CF0AF0005070
:100670000502F3500926F4500A22E86A0B220150C1
:100680000402F3500926F4500A22E86A0B2208C03B
:1006900000F009C001F00AC002F00BC003F0120024
:1006A000800E0201446F4451000A12E04451431588
:1006B000016E0150000802E2828001D082902DDD9F
:1006C0002CDD82822CDD82922ADD4433449FEBD7DD
:0206D000120016
:1006D20003500718D8A47DEF03F002500618D8A4DF
:1006E2007DEF03F001500518D8A47DEF03F0005010
:0E06F2000418D8B4D8841200D8941200120054
:100700000B800BAE8CEF03F0026A0AAEFF0E026E96
:0C071000016E006E0A360232FF0E12006D
:10071C00025006180E6E086A096A0B6A03500764C9
:10072C0081EF04F006500A6E068E028E03500B6E9B
:10073C000750036E000E0B64D1EF03F00B50075EF5
:10074C00D8B472EF04F0070E076440EF04F0075EB4
:10075C0000C008F001C000F002C001F0026A074EB0
:10076C0072EF04F0076415EF04F0075E00C008F0A8
:10077C0001C000F0016A074E72EF04F00764F3EF5A
:10078C0003F0075E00C008F0006A074E72EF04F039
:10079C000764DAEF03F00AC002F005C001F004C0F0
:1007AC0000F0086A9CEF05F0030E0764E5EF03F018
:1007BC00075E08380F0B086E074E72EF04F0D890E6
:1007CC000832074E72EF04F0D8900832074E72EFE1
:1007DC0004F0D890083272EF04F0030E076404EFB3
:1007EC0004F0075E08380F0B086E0038F00B082673
:1007FC0000380F0B006E074E72EF04F0D8900032E9
:10080C000832074E72EF04F0D89000320832074ECF
:10081C0072EF04F0D8900032083272EF04F0030E3D
:10082C0007642CEF04F0075E08380F0B086E0038D5
:10083C00F00B082600380F0B006E0138F00B002669
:10084C0001380F0B016E074E72EF04F0D890013295
:10085C0000320832074E72EF04F0D89001320032A9
:10086C000832074E72EF04F0D89001320032083291
:10087C0072EF04F0030E07645DEF04F0075E0838B6
:10088C000F0B086E0038F00B082600380F0B006EAB
:10089C000138F00B002601380F0B016E0238F00BFB
:1008AC00012602380F0B026E074E72EF04F0D8903F
:1008BC000232013200320832074E72EF04F0D89047
:1008CC000232013200320832074E72EF04F0D89037
:1008DC000232013200320832096A000E0EAE66EFA7
:1008EC0005F0081E001E011E021E082A002201220D
:1008FC00022266EF05F00750D8A487EF04F09CEFB6
:10090C0005F0096A02C00AF0028E068E0750035CDD
:10091C00076ED8B459EF05F0070E076427EF05F002
:10092C00075E0450096E0550046E0650056E066A8B
:10093C00074E59EF05F0070E0764FCEF04F0075E55
:10094C000450096E0550046E056A074E59EF05F008
:10095C00070E0764DAEF04F0075E0450096E046AB0
:10096C00074E59EF05F0070E0764C1EF04F00AC0FB
:10097C0002F09CEF05F0030E0764CCEF04F0075E69
:10098C0009380F0B096E074E59EF05F0D890093254
:10099C00074E59EF05F0D8900932074E59EF05F084
:1009AC00D890093259EF05F0030E0764EBEF04F011
:1009BC00075E09380F0B096E0438F00B0926043852
:1009CC000F0B046E074E59EF05F0D8900432093224
:1009DC00074E59EF05F0D89004320932074E59EF03
:1009EC0005F0D8900432093259EF05F0030E076474
:1009FC0013EF05F0075E09380F0B096E0438F00B86
:100A0C00092604380F0B046E0538F00B0426053844
:100A1C000F0B056E074E59EF05F0D89005320432D6
:100A2C000932074E59EF05F0D890053204320932DD
:100A3C00074E59EF05F0D89005320432093259EFC0
:100A4C0005F0030E076444EF05F0075E09380F0B41
:100A5C00096E0438F00B092604380F0B046E0538A8
:100A6C00F00B042605380F0B056E0638F00B052627
:100A7C0006380F0B066E074E59EF05F0D89006326C
:100A8C00053204320932074E59EF05F0D890063280
:100A9C00053204320932074E59EF05F0D890063270
:100AAC00053204320932086A000E0EAE66EF05F00C
:100ABC00091E041E051E061E092A042205220622F2
:100ACC00095008260450002205500122065002222B
:100ADC000EBE7DEF05F0D8A08CEF05F0023201328E
:100AEC0000320832033E8CEF05F096EF05F0D8B0DB
:100AFC0091EF05F0000E081E001E011E021E082AB2
:100B0C000022012202220A7E91EF05F0010E0C6EEA
:100B1C00A8DC9EEF05F0020E0C6EA3DC9EEF05F038
:100B2C00040E0C6E69EC00F09EEF05F0000E0C6EDE
:020B3C001200A5
:100B3E0002013C513D25016E000E3E21026E01C0A8
:100B4E003DF202C03EF2800E0218006E800E005C76
:100B5E0002E1000E015C05E23F6B406B416B426BA4
:100B6E003FD0800E006E800E3E19005C02E13D51BA
:100B7E00FF0825E2046A056A066A076A39C200F0B0
:100B8E003AC201F03BC202F03CC203F002DCFF0E9F
:100B9E00D8B0000E006E005209E0FF0E3F6FFF0E40
:100BAE00406FFF0E416FFF0E426F1AD0FF0E3F6F68
:100BBE00FF0E406F7F0E416FFF0E426F11D0390E48
:100BCE00E96E020EEA6EEE50EE50EE503DC2EFFFB1
:100BDE0039C23FF23AC240F23BC241F23CC242F24B
:100BEE003FC200F040C201F041C202F042C203F027
:020BFE001200E3
:100C0000828C010E02013A6F000E3B6F200E395D9F
:100C1000006E000E016E000E0156050E046E000EF1
:100C2000056E16DD3A5100263B510122010E005E91
:100C3000000E015A260E0024F66E730E0120F76E88
:100C4000000EF86E000E01BEFF0EF8220900F5CF6F
:100C500043F226DD000E3B1902E1050E3A1903E0CE
:080C60003A4B3B2BD3D71200E5
:100C6800086A096A100E0C6E0134083609360450F9
:100C7800085E0550D8A0053C095ED8B007D00450DE
:100C880008260550D8B0053C0926D890003601360C
:060C98000C2EEAD7120049
:100C9E0039C200F00032009E0032009E0032009EEB
:100CAE000032009E100E001002013C6F39C23BF262
:100CBE003B373B913B373B913B373B913B373B912E
:100CCE003B333B9F3B333B9F3B333B9F3B333B9FF6
:100CDE00829C3A51070A04E1B70E436FDADC31D039
:100CEE003A51060A04E1B60E436FD3DC2AD03A51CC
:100CFE00050A04E1B50E436FCCDC23D03A51040A49
:100D0E0004E1B40E436FC5DC1CD03A51030A04E172
:100D1E00B30E436FBEDC15D03A51020A04E1B20E97
:100D2E00436FB7DC0ED03A51010A04E1B10E436FA6
:100D3E00B0DC07D03A51000A04E1B00E436FA9DCD3
:100D4E0000D03CC243F2A5DC3BC243F2A2DC828C53
:020D5E00120081
:100D600039C204F03AC205F004C0E9FF05C0EAFF49
:100D7000EE50000A03E0044A052AF6D70201395171
:100D8000045C026E3A510558036E02C000F003C0C5
:040D900001F012005C
:0E0D9400A50E0D6E0D2EFED700000000120001
:100DA2000450000A12E10550000A0FE10650000A41
:100DB2000CE10750000A09E1FF0E006EFF0E016E02
:100DC2007F0E026EFF0E036EA8D0086A096A0750F2
:100DD200D8B47CEF07F00350D8B481EF07F002508B
:100DE20006180A6E028E068E0E6A02C008F001C054
:100DF2000CF000C00DF004500D5E0550D8A0053C6B
:100E02000C5E0650D8A0063C085E086A0C6A0D6AA1
:100E1200D8A013EF07F0D890023201320032083224
:100E2200010E0E6E0750035ED8A020EF07F07E0E73
:100E32000E240326D8B086EF07F026EF07F07E0EC9
:100E42000E240326D8A08BEF07F0180E0B6E0D367A
:100E52000C3608360036013602360E360450005E75
:100E62000550D8A0053C015E0650D8A0063C025EA3
:100E720006340E120EA041EF07F00D804CEF07F082
:100E8200045000260550D8B0053C01260650D8B0C3
:100E9200062802260D900B2E28EF07F072EF07F0BE
:100EA200D8900036013602360E360450005E0550E8
:100EB200D8A0053C015E0650D8A0063C025E06346E
:100EC2000E10010B0D26D8B00C2AD8B4082AD8A4CB
:100ED20072EF07F008320C320D32032AD8B486EFD3
:100EE20007F00AAE089E0850026E0C50016E0D50BB
:100EF200006E8EEF07F0010ECCEC01F08EEF07F0E2
:100F0200020E75EC00F08EEF07F0040E69EC00F0B3
:0C0F12008EEF07F0080E7CEC00F01200DF
:100F1E007E0E02013C5D006E000E016E000E01564B
:100F2E003DC2E1FF3EC2E2FF00C0E6FF01C0E6FFA8
:100F3E00390EE96E020EEA6EEE50EE50EE507E0E57
:100F4E00EF6E39C204F03AC205F03BC206F03CC265
:100F5E0007F004C000F005C001F006C002F007C0A3
:040F6E0003F012007A
:100F72000B6A0A6A096A086A0E6A03340836045060
:100F8200085E0550D8A0053C095E0650D8A0063C74
:100F92000A5E0750D8A0073C0B5EE86AD8A0010E93
:100FA2000E5E0336070E0C6E0334083609360A3617
:100FB2000B360E36045003A012D0085E0550D8A09E
:100FC200053C095E0650D8A0063C0A5E0750D8A030
:100FD200073C0B5EE86AD8A0010E0E5E11D008260F
:100FE2000550D8B0053C09260650D8B0063C0A2662
:100FF2000750D8B0073C0B26E86AD8B0010E0E267F
:1010020003360C2ED1D70234083609360A360B368F
:101012000E36045003A012D0085E0550D8A0053C3D
:10102200095E0650D8A0063C0A5E0750D8A0073CCD
:101032000B5EE86AD8A0010E0E5E11D0082605509C
:10104200D8B0053C09260650D8B0063C0A260750FF
:10105200D8B0073C0B26E86AD8B0010E0E2602363D
:10106200070E0C6E0234083609360A360B360E3677
:10107200045002A012D0085E0550D8A0053C095EBB
:101082000650D8A0063C0A5E0750D8A0073C0B5E6B
:10109200E86AD8A0010E0E5E11D008260550D8B01D
:1010A200053C09260650D8B0063C0A260750D8B09F
:1010B200073C0B26E86AD8B0010E0E2602360C2E2B
:1010C200D1D70134083609360A360B360E360450AB
:1010D20002A012D0085E0550D8A0053C095E065059
:1010E200D8A0063C0A5E0750D8A0073C0B5EE86A0F
:1010F200D8A0010E0E5E11D008260550D8B0053CCE
:1011020009260650D8B0063C0A260750D8B0073C3C
:101112000B26E86AD8B0010E0E260136070E0C6EB9
:101122000134083609360A360B360E36045001A051
:1011320012D0085E0550D8A0053C095E0650D8A022
:10114200063C0A5E0750D8A0073C0B5EE86AD8A0AE
:10115200010E0E5E11D008260550D8B0053C0926B6
:101162000650D8B0063C0A260750D8B0073C0B26DA
:10117200E86AD8B0010E0E2601360C2ED1D7003403
:10118200083609360A360B360E36045001A012D044
:10119200085E0550D8A0053C095E0650D8A0063C62
:1011A2000A5E0750D8A0073C0B5EE86AD8A0010E81
:1011B2000E5E11D008260550D8B0053C092606500F
:1011C200D8B0063C0A260750D8B0073C0B26E86A7E
:1011D200D8B0010E0E260036070E0C6E003408360B
:1011E20009360A360B360E36045000A012D0085EBD
:1011F2000550D8A0053C095E0650D8A0063C0A5E00
:101202000750D8A0073C0B5EE86AD8A0010E0E5E1C
:1012120011D008260550D8B0053C09260650D8B092
:10122200063C0A260750D8B0073C0B26E86AD8B01D
:10123200010E0E2600360C2ED1D700B00ED004506F
:1012420008260550D8B0053C09260650D8B0063C01
:0C1252000A260750D8B0073C0B261200FB
:10125E00086A080E0C6E003408360450085ED8B0CA
:0E126E0002D00826D89000360C2EF5D71200BC
:10127C000201390739073951000806E23907000025
:10128C00000000000000F7D7000000000000000084
:0A129C000000000000000000120036
:1012A6000134083609360450085E0550D8A0053CBE
:1012B600095E003601360F0E0C6E0134083609360B
:1012C600045000A006D0085E0550D8A0053C095E73
:1012D60005D008260550D8B0053C0926003601364B
:1012E6000C2EEBD700B006D0045008260550D8B017
:0812F600053C0926000012006E
:1012FE00828C010E02013A6F200E395D006E050ED2
:10130E000002F3CF00F03A5100260006060E00242C
:10131E00F66E750EF76E000EF722000EF86E000ECA
:10132E00F8220900F5CF43F250EC03F03A51050ACA
:0E133E0002E03A2BE1D7436B50EC03F01200B3
:10134C000450000A12E10550000A0FE10650000A91
:10135C000CE10750000A09E1FF0E006EFF0E016E52
:10136C00FF0E026E7F0E036E99D00C6A07BE0C2A1C
:10137C000D6A0B6A0A6A096A086A035002100110A6
:10138C000010D8B485D0035007180E6E0EBE0D1E7B
:10139C0007AE0BD0041E051E061E071E042AD8B469
:1013AC00052AD8B4062AD8B4072A03AE0BD0001EDF
:1013BC00011E021E031E002AD8B4012AD8B4022A28
:1013CC00D8B4032A035007100E6E0EBE1DD094EC39
:1013DC0000F00CBE36D00DAE5BD0001E011E021EFE
:1013EC00031E002AD8B4012AD8B4022AD8B4032A7E
:1013FC00081E091E0A1E0B1E082AD8B4092AD8B4C6
:10140C000A2AD8B40B2A44D007AE15D003BE0DD08F
:10141C0003500B6E02500A6E0150096E0050086E9C
:10142C00036A026A016A006AD6D7036A026A016A11
:10143C00006A002A000C031E021E011E001E0C8EE8
:10144C00C6D7082AD8B4092AD8B40A2AD8B40B2A81
:10145C000450085CD8A4BFD70550095CD8A4BBD7EE
:10146C0006500A5CD8A4B7D707500B5CD8A4B3D7E6
:10147C000B6A0A6A096A086A002AD8B4012AD8B425
:10148C00022AD8B4032A03AEA6D70E6A0E88FF0C24
:0E149C000E6A0CA002D0C0EC01F0000F12008E
:1014AA00A00E046E0F0E056E000E066E076E04C0C7
:1014BA0000F005C001F006C002F007C003F01200F8
:1014CA002AC204F02BC205F02CC206F02DC207F086
:1014DA00006A016A026A036AD0EC01F0000ED8B011
:1014EA00FF0E006E005206E002012E6B2F6B306B6E
:1014FA00316BFCD02AC22EF22BC22FF22CC230F250
:10150A002DC231F2000E046E000E056E000E066E3C
:10151A007F0E076E2EC200F02FC201F030C202F019
:10152A0031C203F0D0EC01F0FF0ED8B0000E006E0D
:10153A00005219E02EC204F02FC205F030C206F0A4
:10154A0031C207F0000E006E000E016E000E026E30
:10155A007F0E036E21DC00C02EF201C02FF202C002
:10156A0030F203C031F22EC239F22FC23AF230C23F
:10157A003BF231C23CF2370E02013D6F020E3E6F62
:10158A00C9DC00C02EF201C02FF202C030F203C043
:10159A0031F22EC239F22FC23AF230C23BF231C2D4
:1015AA003CF237C23DF238C23EF23E333D333E9FF3
:1015BA003EBD3E8F9FEC05F000C02EF201C02FF217
:1015CA0002C030F203C031F2000E046E000E056E46
:1015DA00000E066E7F0E076E2AC200F02BC201F0C3
:1015EA002CC202F02DC203F0D0EC01F0FF0ED8B0ED
:1015FA00000E006E00521AE02EC204F02FC205F04F
:10160A0030C206F031C207F0000E006E000E016E05
:10161A00000E026E7F0E036ED1EC06F000C02EF2B1
:10162A0001C02FF202C030F203C031F2130E0201E0
:10163A00366F3651000A5AE02EC204F02FC205F066
:10164A0030C206F031C207F02AC200F02BC201F004
:10165A002CC202F02DC203F0D1EC06F000C032F227
:10166A0001C033F202C034F203C035F22EC204F0D4
:10167A002FC205F030C206F031C207F08EEC03F03B
:10168A0000C032F201C033F202C034F203C035F2B4
:10169A00000E046E000E056E000E066E800E076EBA
:1016AA00D1EC06F000C032F201C033F202C034F2CB
:1016BA0003C035F22EC204F02FC205F030C206F084
:1016CA0031C207F069EC03F0FF0ED8A4000E006ED9
:1016DA00005201E00BD032C22EF233C22FF234C2D2
:1016EA0030F235C231F202013607A3D72EC200F01A
:0E16FA002FC201F030C202F031C203F0120024
:101708000B6A0C6A086A0350D8B408EF0CF002C0E0
:101718000AF0028E9E0E035E03AEF8EF0BF0036C28
:10172800080E035CD8A0C5EF0BF0036E083600C0A6
:1017380008F001C000F002C001F0026A080E035C64
:10174800D8A0C5EF0BF0036E083600C008F001C042
:1017580000F0016A080E035CD8A0C5EF0BF0036E19
:10176800083600C008F0006A080E035CD8A0C5EF70
:101778000BF0036E0836086A0350D8A4D890D1EF4E
:101788000BF00350D8B4D1EF0BF0D89002320132ED
:1017980000320832032EC9EF0BF00BBC08A0E2EFB1
:1017A8000BF0D8A0E2EF0BF0082AD8B4002AD8B47E
:1017B800012AD8B4022A02BE0CEF0CF00AAE08EFD8
:1017C8000CF0021E011E001E081E082AD8B4002AAA
:1017D800D8B4012AD8B4022A08EF0CF0026A016AC8
:1017E800006A086A08EF0CF00B800BAE13EF0CF0E0
:1017F800026A0AAE13EF0CF0026E016E006E086EFC
:101808000A36023213EF0CF00C6A000E14EF0CF0DB
:10181800010E0C6E000E80EC03F014EF0CF0FF0EBE
:101828000250036E0150026E0050016E0850006EA7
:0218380012009C
:10183A000B6A0C6A0A6A0350D8B452EF0CF00A9E7B
:10184A00028E860E035E03BE30EF0CF0D8B430EF82
:10185A000CF055EF0CF0036C080E035CD8A03EEFB9
:10186A000CF0036E0236026A0350D8A4D89047EFF0
:10187A000CF00350D8B447EF0CF0D8900232032E84
:10188A0042EF0CF00BBC02A052EF0CF0D8A052EFC2
:10189A000CF0022AD8B45CEF0CF0016A62EF0CF08B
:1018AA000B800BAE66EF0CF0016A66EF0CF0010ECE
:1018BA000C6E80EC03F068EF0CF0000E0C6E68EF13
:0C18CA000CF0FF0E0C6E0250006E1200BD
:1018D60002012D51800A08E12C51000A05E12B5125
:1018E600000A02E12A51000A1CE12EC2E1FF2FC2C2
:1018F600E2FF2D0EE66E320EE66E310EE66E340E09
:10190600E66E370EE66E340EE66E380EE66E330E73
:10191600E66E360EE66E340EE66E380EE66EE66A55
:1019260098D0326B800E2D19006E800E005C08E197
:10193600000E2C5D05E1000E2B5D02E1000E2A5D16
:1019460016E2FF0E326F006A016A026A036A2A51C2
:10195600005E2B51015A2C51025A2D51035A00C0D8
:101966002AF201C02BF202C02CF203C02DF22EC2C5
:10197600E1FF2FC2E2FF200EE66E200EE66E200E7D
:10198600E66E200EE66E200EE66E200EE66E200E49
:10199600E66E200EE66E200EE66E200EE66E300E29
:1019A600E66EE66A0A0E2E25306F000E2F21316F85
:1019B600000E006E2D1908E100502C1905E10050AB
:1019C6002B1902E12A51000A3CE00A0E046E000EB1
:1019D600056E066E076E2AC200F02BC201F02CC2FD
:1019E60002F02DC203F0AFDC08C000F009C001F020
:1019F6000AC002F00BC003F0300E002630C2E1FF31
:101A060031C2E2FF00C0E6FF0A0E046E000E056E4C
:101A1600066E076E2AC200F02BC201F02CC202F03D
:101A26002DC203F090DC00C02AF201C02BF202C0E6
:101A36002CF203C02DF2010E0201305F000E315B65
:101A4600B7D7325306E030C2E1FF31C2E2FF2D0EB6
:041A5600E66E120026
:101A5A00010E02012B6F38502A1B39C0E9FF3AC028
:101A6A00EAFF3850000A03E03B50EF1203D00001AE
:101A7A006051EF1665C039F23EEC09F02A1F2B516E
:101A8A00000A1AE02B512A15016E0150000A03E1DF
:101A9A003B50EF1203D000016051EF1602012B37C1
:101AAA002B91020E0001655D0201396F3EEC09F0CF
:101ABA00000000000000E3D73850000A04E00001EB
:101ACA006051EF1602D03B50EF1265C039F23EEC7E
:041ADA0009F01200FD
:0A1ADE002AC243F250EC03F012009C
:101AE8000450000A08E10550000A05E1FF0E006EE7
:101AF8007F0E016E58D00D6A096A086A01500010FD
:101B0800D8B4000C015005180A6E0ABE0D1E0B6AE7
:101B180005AE05D0041E051E042AD8B4052A01AE58
:101B280005D0001E011E002AD8B4012A0150051054
:101B38000A6E0ABE10D053EC09F00BB020D00DAEDF
:101B4800000C001E011E002AD8B4012A081E091E16
:101B5800082AD8B4092A000C05AE0DD001BE07D05A
:101B68000150096E0050086E016A006AE8D7016AE0
:101B7800006A002A000C011E001E0B2ADDD7082A65
:101B8800D8B4092A0450085CD8A4D9D70550095CF0
:101B9800D8A4D5D7096A086A002AD8B4012A01AEA0
:081BA800CED70000FF0C120073
:101BB000A6A202D00000FCD7A69C2AC2A9FF2BC275
:101BC000A8FFA69EA684F2CF00F0F29E550EA76E47
:101BD000AA0EA76EA68200BE02D0F29E01D0F28E9F
:041BE000A6941200B5
:101BE40002012F6B2CC201F0010E006E015004E0C3
:101BF40000360090FF0FFBD72AC2E9FF2BC2EAFF91
:101C04000050EE14026E016A0250000A02E0010E56
:101C1400016E01502E1925E12D51000806E2CAEC8F
:101C240006F0CAEC06F02D07F7D72CC201F0010E1E
:101C3400006E015004E000360090FF0FFBD72AC26B
:101C4400E9FF2BC2EAFF0050EE14026E016A025053
:101C5400000A02E0010E016E01502E1902E1FF0E8E
:081C64002F6F2FC200F01200E7
:101C6C002AC239F22BC23AF24FEC06F02E6B2CC280
:101C7C0039F22DC23AF2B0EC06F0010E005C2F6F77
:101C8C00000E0158306F000E305D02E12E512F5DB9
:101C9C0015E32E512C25E96E000E2D21EA6EEECFA8
:101CAC0039F200EC06F0436B50EC03F0000E3019E7
:0E1CBC0002E12F512E1902E02E2BD9D7120073
:101CCA002AC239F22BC23AF24FEC06F02E6B2CC222
:101CDA0039F22DC23AF2B0EC06F0010E005C2F6F19
:101CEA00000E0158306F000E305D02E12E512F5D5B
:101CFA0012E32E512C25E96E000E2D21EA6EEECF4D
:101D0A0039F27FEC09F0000E301902E12F512E1939
:081D1A0002E02E2BDCD71200C1
:101D2200220E0C6E086A096A0A6A0B6A0C06D8B49B
:101D32001FD0D8900B320A320932083203320232F3
:101D420001320032D8A0F2D70C06D8B409D0045020
:101D520008260550092206500A2207500B22EAD70C
:101D6200045008260550092206500A2207500B2269
:021D720012005D
:101D74002EC2E1FF2FC2E2FF200EE66E200EE66EB9
:101D8400200EE66E200EE66E200EE66E200EE66E47
:101D9400200EE66E200EE66E200EE66E300EE66E27
:101DA400E66A090E02012E25306F000E2F21316FD5
:101DB400000E006E2D1908E100502C1905E10050A9
:101DC4002B1902E12A51000A3DE00A0E046E000EAE
:101DD400056E066E076E2AC200F02BC201F02CC2FB
:101DE40002F02DC203F0B9EC07F008C000F009C0FE
:101DF40001F00AC002F00BC003F0300E002630C21E
:101E0400E1FF31C2E2FF00C0E6FF0A0E046E000EDD
:101E1400056E066E076E2AC200F02BC201F02CC2BA
:101E240002F02DC203F0B9EC07F000C02AF201C0A1
:101E34002BF202C02CF203C02DF2010E305F000E13
:061E4400315BB6D712006D
:101E4A002AC239F22BC23AF24FEC06F02B2B2C5154
:101E5A00300F016E01C02CF2828C0150300A33E13E
:101E6A002D6B5E0E2D25F66E760EF76E000EF7229E
:101E7A00000EF86E000EF8220900F5CF43F250EC7E
:101E8A0003F02D510B0A02E02D2BEBD72AC239F2AF
:101E9A002BC23AF24FEC06F00C0E2D6F5E0E2D257A
:101EAA00F66E760EF76E000EF722000EF86E000E32
:101EBA00F8220900F5CF43F250EC03F02D51170A2E
:101ECA0002E02D2BEBD72C51310A33E12D6B460E54
:101EDA002D25F66E760EF76E000EF722000EF86EBE
:101EEA00000EF8220900F5CF43F250EC03F02D5111
:101EFA000B0A02E02D2BEBD72AC239F22BC23AF297
:101F0A004FEC06F00C0E2D6F460E2D25F66E760E52
:101F1A00F76E000EF722000EF86E000EF822090086
:101F2A00F5CF43F250EC03F02D51170A02E02D2BA6
:101F3A00EBD72C51320A33E12D6B2E0E2D25F66E7E
:101F4A00760EF76E000EF722000EF86E000EF822DB
:101F5A000900F5CF43F250EC03F02D510B0A02E0D1
:101F6A002D2BEBD72AC239F22BC23AF24FEC06F0EC
:101F7A000C0E2D6F2E0E2D25F66E760EF76E000EB8
:101F8A00F722000EF86E000EF8220900F5CF43F290
:101F9A0050EC03F02D51170A02E02D2BEBD72C51F0
:101FAA00330A33E12D6B760E2D25F66E760EF76E1B
:101FBA00000EF722000EF86E000EF8220900F5CF87
:101FCA0043F250EC03F02D510B0A02E02D2BEBD714
:101FDA002AC239F22BC23AF24FEC06F00C0E2D6FE0
:101FEA00760E2D25F66E760EF76E000EF722000E8F
:101FFA00F86E000EF8220900F5CF43F250EC03F018
:10200A002D51170A02E02D2BEBD72C51340A33E15C
:10201A002D6BBE0E2D25F66E760EF76E000EF7228C
:10202A00000EF86E000EF8220900F5CF43F250ECCC
:10203A0003F02D510B0A02E02D2BEBD72AC239F2FD
:10204A002BC23AF24FEC06F00C0E2D6FBE0E2D2568
:10205A00F66E760EF76E000EF722000EF86E000E80
:10206A00F8220900F5CF43F250EC03F02D51170A7C
:10207A0002E02D2BEBD72C51350A33E12D6BA60E3E
:10208A002D25F66E760EF76E000EF722000EF86E0C
:10209A00000EF8220900F5CF43F250EC03F02D515F
:1020AA000B0A02E02D2BEBD72AC239F22BC23AF2E5
:1020BA004FEC06F00C0E2D6FA60E2D25F66E760E41
:1020CA00F76E000EF722000EF86E000EF8220900D5
:1020DA00F5CF43F250EC03F02D51170A02E02D2BF5
:1020EA00EBD72C51360A33E12D6B8E0E2D25F66E69
:1020FA00760EF76E000EF722000EF86E000EF8222A
:10210A000900F5CF43F250EC03F02D510B0A02E01F
:10211A002D2BEBD72AC239F22BC23AF24FEC06F03A
:10212A000C0E2D6F8E0E2D25F66E760EF76E000EA6
:10213A00F722000EF86E000EF8220900F5CF43F2DE
:10214A0050EC03F02D51170A02E02D2BEBD72C513E
:10215A00370A33E12D6B160E2D25F66E760EF76EC5
:10216A00000EF722000EF86E000EF8220900F5CFD5
:10217A0043F250EC03F02D510B0A02E02D2BEBD762
:10218A002AC239F22BC23AF24FEC06F00C0E2D6F2E
:10219A00160E2D25F66E760EF76E000EF722000E3D
:1021AA00F86E000EF8220900F5CF43F250EC03F066
:1021BA002D51170A02E02D2BEBD72C51380A33E1A7
:1021CA002D6BCE0E2D25F66E750EF76E000EF722CC
:1021DA00000EF86E000EF8220900F5CF43F250EC1B
:1021EA0003F02D510B0A02E02D2BEBD72AC239F24C
:1021FA002BC23AF24FEC06F00C0E2D6FCE0E2D25A7
:10220A00F66E750EF76E000EF722000EF86E000ECF
:10221A00F8220900F5CF43F250EC03F02D51170ACA
:10222A0002E02D2BEBD72C51390A33E12D6BE60E48
:10223A002D25F66E750EF76E000EF722000EF86E5B
:10224A00000EF8220900F5CF43F250EC03F02D51AD
:10225A000B0A02E02D2BEBD72AC239F22BC23AF233
:10226A004FEC06F00C0E2D6FE60E2D25F66E750E50
:10227A00F76E000EF722000EF86E000EF822090023
:10228A00F5CF43F250EC03F02D51170A02E02D2B43
:04229A00EBD712006C
:10229E002AC201F02BC202F02AC203F02BC204F0B4
:1022AE0003C0E9FF04C0EAFFEE50200A03E1034A2F
:1022BE00042AF6D703C0E9FF04C0EAFF01C0E1FF1C
:1022CE0002C0E2FFEECFE6FF014A022A034A042AC9
:1022DE0003C0E9FF04C0EAFFEE50000A01E0EAD7AE
:0C22EE0001C0E1FF02C0E2FFE66A12003E
:1022FA002CC2E1FF2DC2E2FF200EE66E200EE66E32
:10230A00200EE66E200EE66E300EE66EE66A040ECB
:10231A0002012C252E6F000E2D212F6F000E2B1976
:10232A0002E1000E2A1929E00A0E046E000E056E5B
:10233A002AC200F02BC201F034EC06F008C000F00B
:10234A0009C001F0300E00262EC2E1FF2FC2E2FFC3
:10235A0000C0E6FF0A0E046E000E056E2AC200F0E7
:10236A002BC201F034EC06F000C02AF201C02BF2B5
:0C237A00010E2E5F000E2F5BD1D7120069
:1023860000C008F00B6A0C6A9E0E036E0A6A026AA7
:0E239600016A006A020E0C6E37EC02F01200B3
:1023A4000C6A0E6A0250D8A4EBEF11F001C002F0DF
:1023B40000C001F0006A0E860250D8A4EBEF11F0C1
:1023C40001C002F0016A0E960E880250D8B4FDEFE7
:1023D40011F00E50035ED8A4D8A003EF12F0D890E9
:1023E40002BE09EF12F0003601360236032EF2EF78
:1023F40011F003EF12F0010E0C6E75EC00F00DEF0E
:1024040012F0020E0C6E7CEC00F00DEF12F0040ED4
:082414000C6E89EC00F01200CF
:10241C00086A096A000E0762036493EF12F0025017
:10242C0006180A6E075003267E0ED8A024EF12F071
:10243C00035ED8B098EF12F028EF12F0035ED8A02C
:10244C009DEF12F0028E068E02C00EF001C00BF052
:10245C0000C00DF000500402F4CF0CF00150050246
:10246C00F4CF00F0F3CF08F00402F3500C26F45034
:10247C000822000E00220D500502F3500C26F450D9
:10248C000822000E002202500402F3500826F450D9
:10249C00002202500502016A000E0122F3500026B0
:1024AC00F45001220D500602F3500826F45000227D
:1024BC00026A000E012202220B500602F350002683
:1024CC00F4500122000E02220E500602F350012697
:1024DC00F450022202BE7BEF12F0083600360136B1
:1024EC0002360306D8B49DEF12F08EEF12F0D880AE
:1024FC00800E08640030000E002201220222D8A0B7
:10250C008EEF12F0023201320032034A98EF12F0D1
:10251C000AAE029E000EA0EF12F0010E75EC00F058
:10252C00A0EF12F0020E69EC00F0A0EF12F0040E16
:06253C007CEC00F012002F
:102542000050086E0150006E0250016E0350026E80
:10255200036A0B6A0C6A9E0E036E0A6A02AEBEEF33
:1025620012F0081E001E011E021E082AD8B4002AFC
:10257200D8B4012AD8B4022A0A8E020E0C6E37ECA5
:0425820002F0120051
:08258600067E8EEC03F012004A
:10258E002BC2E1FF2CC2E2FF200EE66E200EE66E9D
:10259E00300EE66EE66A020E02012B252D6F000E3E
:1025AE002C212E6F2A51000A1CE00A0E046E2AC23C
:1025BE0000F02FEC09F008C000F02DC2E1FF2EC292
:1025CE00E2FF300E0024E66E0A0E046E2AC200F000
:1025DE002FEC09F000C02AF2010E2D5F000E2E5BCB
:0425EE00E1D712001F
:1025F200B00E02012A6F829C2AC243F250EC03F011
:10260200100E436F50EC03F0436B50EC03F0828CDE
:102612002B6B436B50EC03F02B517F0A02E02B2B08
:0E262200F8D72A51B70A02E02A2BE5D712009A
:10263000000E0101DB5D08E1010EDA5D05E1860EA9
:10264000D95D02E1A00ED85DD8B0A1D07A0E02010A
:102650002A6F070E2B6F2C0E016F026B010E2C6F71
:10266000020E2D6F65EC0EF0100E046E270E056E37
:10267000000E066E076ED8C100F0D9C101F0DAC1B4
:1026800002F0DBC103F0B9EC07F000C0CFF101C0EC
:10269000D0F1640E396F070E3A6F4FEC06F001016E
:1026A000CF51300F0201396F7FEC09F0690E2A6FAC
:1026B000070E2B6F2F0E016F026B010E2C6F020E97
:1026C0002D6F65EC0EF0E80E046E030E056E000E25
:1026D000066E076ED8C100F0D9C101F0DAC102F070
:1026E000DBC103F0B9EC07F00A0E046E000E056EB4
:1026F000066E076EB9EC07F008C000F009C001F0E3
:102700000AC002F00BC003F000C0CFF101C0D0F14D
:102710006E0E396F070E3A6F4FEC06F00101CF5184
:10272000300F0201396F7FEC09F0640E046E000E69
:10273000056E066E076ED8C100F0D9C101F0DAC18E
:1027400002F0DBC103F0B9EC07F00A0E046E000ED4
:10275000056E066E076EB9EC07F008C000F009C000
:1027600001F00AC002F00BC003F000C0CFF101C0BD
:10277000D0F1730E396F070E3A6F4FEC06F001017E
:10278000CF51300F0201396F7FEC09F055D1000EA7
:102790000101DB5D08E10F0EDA5D05E1420ED95D56
:1027A00002E1400ED85DD8B0A3D07A0E02012A6FA4
:1027B000070E2B6F2C0E016F026B010E2C6F020E99
:1027C0002D6F65EC0EF0A00E046E860E056E010EE8
:1027D000066E000E076ED8C100F0D9C101F0DAC153
:1027E00002F0DBC103F0B9EC07F000C0CFF101C08B
:1027F000D0F1640E396F070E3A6F4FEC06F001010D
:10280000CF51300F0201396F7FEC09F0100E046ECA
:10281000270E056E000E066E076ED8C100F0D9C1F6
:1028200001F0DAC102F0DBC103F0B9EC07F00A0EE7
:10283000046E000E056E066E076EB9EC07F008C058
:1028400000F009C001F00AC002F00BC003F000C0A4
:10285000CFF101C0D0F1690E396F070E3A6F4FEC1E
:1028600006F00101CF51300F0201396F7FEC09F002
:102870006E0E2A6F070E2B6F2F0E016F026B010E6B
:102880002C6F020E2D6F65EC0EF0E80E046E030E39
:10289000056E000E066E076ED8C100F0D9C101F0BA
:1028A000DAC102F0DBC103F0B9EC07F00A0E046EE6
:1028B000000E056E066E076EB9EC07F008C000F05A
:1028C00009C001F00AC002F00BC003F000C0CFF154
:1028D00001C0D0F1730E396F070E3A6F4FEC06F05E
:1028E0000101CF51300F0201396F7FEC09F0A4D004
:1028F00002017A0E2A6F070E2B6F2B0E016F026BEF
:10290000010E2C6F020E2D6F65EC0EF0800E046E22
:10291000960E056E980E066E000E076ED8C100F07A
:10292000D9C101F0DAC102F0DBC103F0B9EC07F064
:1029300000C0CFF101C0D0F1640E396F070E3A6FBD
:102940004FEC06F00101CF51300F0201396F7FECDF
:1029500009F0690E2A6F070E2B6F2F0E016F026BA5
:10296000010E2C6F020E2D6F65EC0EF0400E046E02
:10297000420E056E0F0E066E000E076ED8C100F0F7
:10298000D9C101F0DAC102F0DBC103F0B9EC07F004
:102990000A0E046E000E056E066E076EB9EC07F0A7
:1029A00008C000F009C001F00AC002F00BC003F03B
:1029B00000C0CFF101C0D0F16E0E396F070E3A6F33
:1029C0004FEC06F00101CF51300F0201396F7FEC5F
:1029D00009F0A00E046E860E056E010E066E000E46
:1029E000076ED8C100F0D9C101F0DAC102F0DBC135
:1029F00003F0B9EC07F00A0E046E000E056E066EC9
:102A0000076EB9EC07F008C000F009C001F00AC079
:102A100002F00BC003F000C0CFF101C0D0F1730E83
:102A2000396F070E3A6F4FEC06F00101CF51300FAE
:0A2A30000201396F7FEC09F012007B
:102A3A0000C008F00150006E016A026A036A0B6A5C
:102A4A000C6A016A026A036A960E036E0A6A00AE8B
:102A5A0035EF15F0081E001E082AD8B4002A0A8E7F
:102A6A0000C001F008C000F0086A026A96DC120091
:102A7A00000E0101DB5D08E1000EDA5D05E1030EDF
:102A8A00D95D02E1E80ED85DD8B0C7D0360E020192
:102A9A002A6F020E2B6F2C0E016F026B010E2C6F28
:102AAA00020E2D6F65EC0EF0640E046E000E056EBC
:102ABA00066E076ED8C100F0D9C101F0DAC102F082
:102ACA00DBC103F0B9EC07F000C0CFF101C0D0F1CF
:102ADA000A0E2A6F010E2B6F00C02CF225EC0FF0A4
:102AEA00160E396F010E3A6F4FEC06F00101E66BD4
:102AFA00FE0EE625F66E750EF76E000EF722000E34
:102B0A00F86E000EF8220900F5CF43F250EC03F0FC
:102B1A000101E6510B0A02E0E62BEAD7160E020182
:102B2A00396F020E3A6F4FEC06F00C0E0101E66F98
:102B3A00FE0EE625F66E750EF76E000EF722000EF3
:102B4A00F86E000EF8220900F5CF43F250EC03F0BC
:102B5A000101E651170A02E0E62BEAD7160E020136
:102B6A002A6F020E2B6F290E016F026B010E2C6F5A
:102B7A00020E2D6F65EC0EF00A0E046E000E056E45
:102B8A00066E076ED8C100F0D9C101F0DAC102F0B1
:102B9A00DBC103F0B9EC07F00A0E046E000E056EF5
:102BAA00066E076EB9EC07F008C000F009C001F024
:102BBA000AC002F00BC003F000C0CFF101C0D0F18F
:102BCA001B0E2A6F010E2B6F00C02CF225EC0FF0A2
:102BDA000A0E046E000E056E066E076ED8C100F06E
:102BEA00D9C101F0DAC102F0DBC103F0B9EC07F098
:102BFA0008C000F009C001F00AC002F00BC003F0DF
:102C0A0000C0CFF101C0D0F1270E2A6F010E2B6F41
:102C1A0000C02CF225EC0FF068D3000E0101DB5D39
:102C2A0008E1000EDA5D05E1270ED95D02E1100E1A
:102C3A00D85DD8B0D0D0360E02012A6F020E2B6FA3
:102C4A002C0E016F026B010E2C6F020E2D6F65ECBC
:102C5A000EF0E80E046E030E056E000E066E076E89
:102C6A00D8C100F0D9C101F0DAC102F0DBC103F02A
:102C7A00B9EC07F000C0CFF101C0D0F10A0E2A6FFB
:102C8A00010E2B6F00C02CF225EC0FF0640E046EBF
:102C9A00000E056E066E076ED8C100F0D9C101F0AC
:102CAA00DAC102F0DBC103F0B9EC07F00A0E046ED8
:102CBA00000E056E066E076EB9EC07F008C000F04C
:102CCA0009C001F00AC002F00BC003F000C0CFF146
:102CDA0001C0D0F1160E2A6F010E2B6F00C02CF224
:102CEA0025EC0FF0220E396F010E3A6F4FEC06F009
:102CFA000101E66BFE0EE625F66E750EF76E000E06
:102D0A00F722000EF86E000EF8220900F5CF43F202
:102D1A0050EC03F00101E6510B0A02E0E62BEAD778
:102D2A00220E0201396F020E3A6F4FEC06F00C0EBA
:102D3A000101E66FFE0EE625F66E750EF76E000EC1
:102D4A00F722000EF86E000EF8220900F5CF43F2C2
:102D5A0050EC03F00101E651170A02E0E62BEAD72C
:102D6A00220E02012A6F020E2B6F290E016F026BCF
:102D7A00010E2C6F020E2D6F65EC0EF00A0E046E1A
:102D8A00000E056E066E076ED8C100F0D9C101F0BB
:102D9A00DAC102F0DBC103F0B9EC07F00A0E046EE7
:102DAA00000E056E066E076EB9EC07F008C000F05B
:102DBA0009C001F00AC002F00BC003F000C0CFF155
:102DCA0001C0D0F1270E2A6F010E2B6F00C02CF222
:102DDA0025EC0FF08AD2000E0101DB5D08E10F0E2F
:102DEA00DA5D05E1420ED95D02E1400ED85DD8B048
:102DFA00D3D0360E02012A6F020E2B6F2B0E016FF3
:102E0A00026B010E2C6F020E2D6F65EC0EF0A00EF8
:102E1A00046E860E056E010E066E000E076ED8C190
:102E2A0000F0D9C101F0DAC102F0DBC103F0B9EC5C
:102E3A0007F000C0CFF101C0D0F10A0E2A6F010ECF
:102E4A002B6F00C02CF225EC0FF0160E396F010E15
:102E5A003A6F4FEC06F00101E66BFE0EE625F66EC0
:102E6A00750EF76E000EF722000EF86E000EF822AD
:102E7A000900F5CF43F250EC03F00101E6510B0AC9
:102E8A0002E0E62BEAD7160E0201396F020E3A6FFC
:102E9A004FEC06F00C0E0101E66FFE0EE625F66E0B
:102EAA00750EF76E000EF722000EF86E000EF8226D
:102EBA000900F5CF43F250EC03F00101E651170A7D
:102ECA0002E0E62BEAD7160E02012A6F020E2B6FDA
:102EDA00290E016F026B010E2C6F020E2D6F65EC2D
:102EEA000EF0100E046E270E056E000E066E076EAB
:102EFA00D8C100F0D9C101F0DAC102F0DBC103F098
:102F0A00B9EC07F00A0E046E000E056E066E076E27
:102F1A00B9EC07F008C000F009C001F00AC002F0DD
:102F2A000BC003F000C0CFF101C0D0F11B0E2A6F15
:102F3A00010E2B6F00C02CF225EC0FF0E80E046E88
:102F4A00030E056E000E066E076ED8C100F0D9C1D9
:102F5A0001F0DAC102F0DBC103F0B9EC07F00A0EA6
:102F6A00046E000E056E066E076EB9EC07F008C017
:102F7A0000F009C001F00AC002F00BC003F000C063
:102F8A00CFF101C0D0F1270E2A6F010E2B6F00C0BE
:102F9A002CF225EC0FF0A9D1000E0101DB5D08E14E
:102FAA00980EDA5D05E1960ED95D02E1800ED85DD4
:102FBA00D8B0D4D0360E02012A6F020E2B6F2B0E18
:102FCA00016F026B010E2C6F020E2D6F65EC0EF075
:102FDA00400E046E420E056E0F0E066E000E076E50
:102FEA00D8C100F0D9C101F0DAC102F0DBC103F0A7
:102FFA00B9EC07F000C0CFF101C0D0F10A0E2A6F78
:10300A00010E2B6F00C02CF225EC0FF0A00E046EFF
:10301A00860E056E010E066E000E076ED8C100F010
:10302A00D9C101F0DAC102F0DBC103F0B9EC07F053
:10303A000A0E046E000E056E066E076EB9EC07F0F6
:10304A0008C000F009C001F00AC002F00BC003F08A
:10305A0000C0CFF101C0D0F1160E2A6F010E2B6FFE
:10306A0000C02CF225EC0FF0220E396F010E3A6FD8
:10307A004FEC06F00101E66BFE0EE625F66E750EC4
:10308A00F76E000EF722000EF86E000EF822090005
:10309A00F5CF43F250EC03F00101E6510B0A02E0CE
:1030AA00E62BEAD7220E0201396F020E3A6F4FEC75
:1030BA0006F00C0E0101E66FFE0EE625F66E750EA1
:1030CA00F76E000EF722000EF86E000EF8220900C5
:1030DA00F5CF43F250EC03F00101E651170A02E082
:1030EA00E62BEAD7220E02012A6F020E2B6F290E57
:1030FA00016F026B010E2C6F020E2D6F65EC0EF044
:10310A00100E046E270E056E000E066E076ED8C1ED
:10311A0000F0D9C101F0DAC102F0DBC103F0B9EC69
:10312A0007F00A0E046E000E056E066E076EB9EC05
:10313A0007F008C000F009C001F00AC002F00BC095
:10314A0003F000C0CFF101C0D0F1270E2A6F010EA3
:10315A002B6F00C02CF225EC0FF0C7D00201360EFF
:10316A002A6F020E2B6F2B0E016F026B010E2C6F52
:10317A00020E2D6F65EC0EF00A0E396F010E3A6FD2
:10318A004FEC06F00101E66BFE0EE625F66E750EB3
:10319A00F76E000EF722000EF86E000EF8220900F4
:1031AA00F5CF43F250EC03F00101E6510B0A02E0BD
:1031BA00E62BEAD70A0E0201396F020E3A6F4FEC7C
:1031CA0006F00C0E0101E66FFE0EE625F66E750E90
:1031DA00F76E000EF722000EF86E000EF8220900B4
:1031EA00F5CF43F250EC03F00101E651170A02E071
:1031FA00E62BEAD7800E046E960E056E980E066EC2
:10320A00000E076ED8C100F0D9C101F0DAC102F090
:10321A00DBC103F0B9EC07F000C0CFF101C0D0F177
:10322A000F0E02012A6F010E2B6F00C02CF225EC43
:10323A000FF0400E046E420E056E0F0E066E000E63
:10324A00076ED8C100F0D9C101F0DAC102F0DBC1C2
:10325A0003F0B9EC07F00A0E046E000E056E066E56
:10326A00076EB9EC07F008C000F009C001F00AC007
:10327A0002F00BC003F000C0CFF101C0D0F11B0E69
:10328A002A6F010E2B6F00C02CF225EC0FF0A00E56
:10329A00046E860E056E010E066E000E076ED8C10C
:1032AA0000F0D9C101F0DAC102F0DBC103F0B9ECD8
:1032BA0007F00A0E046E000E056E066E076EB9EC74
:1032CA0007F008C000F009C001F00AC002F00BC004
:1032DA0003F000C0CFF101C0D0F1270E2A6F010E12
:0C32EA002B6F00C02CF225EC0FF012003E
:1032F600A69C01C2A9FFA69EA680A8CF01F001C088
:0433060000F01200C1
:10330A000201036B046B016B396B01C23AF24FEC99
:10331A0006F0026B02510325006E000E0421016EB5
:10332A00260E0024F66E6B0E0120F76E000EF86E64
:10333A00000EF8220900F5CF43F250EC03F00251D7
:10334A007F0A02E0022BE6D7800E0327000E042331
:0C335A000151070A02E0012BD7D7120036
:1033660001C239F002C23AF003C200F0010E026E49
:10337600005004E002360290FF0FFBD702C066F051
:10338600021C5F6E04C201F0010E006E015004E0E3
:1033960000360090FF0FFBD700C03BF0001E00C0B8
:1033A60060F0120E02010125E96E000E0221EA6E9E
:1033B6000250EF120050EF16386A0951000AD8A4DD
:1033C600381E120EE95E3850000A04E00001605112
:1033D600EF1602D03B50EF1255EC0AF0E80E046EE1
:1033E600030E056E000E066E076E91EC0EF000C021
:1033F6000BF201C00CF202C00DF203C00EF205C2C0
:1034060000F006C201F007C202F008C203F000365F
:103416000090013602360336003600900136023639
:1034260003360A0E046E000E056E066E076E91ECEC
:103436000EF000C00FF201C010F202C011F203C07C
:1034460012F200C004F001C005F002C006F003C08D
:1034560007F00BC200F00CC201F00DC202F00EC262
:1034660003F0A6EC09F000C013F201C014F201C08B
:1034760004F0056A0450051004E0020E02010A6F0A
:1034860054D013C265F00FC204F010C205F011C289
:1034960006F012C207F00BC200F00CC201F00DC21A
:1034A60002F00EC203F0A6EC09F008C000F009C055
:1034B60001F00AC002F00BC003F000C00BF201C01D
:1034C6000CF202C00DF203C00EF20FC205F010C2DC
:1034D60006F011C207F012C208F0083207320632AF
:1034E6000532089E08BC088E800E0818046E800EF1
:1034F6000318045C08E10250075C05E10150065C14
:1035060002E10050055C02E20001652B65C001F096
:103516000132019E01C05EF0070E015C04E2010E5D
:1035260002010A6F02D002010A6B0AC200F0120001
:103536000A0E0201096FF9EC12F0080E2A6F2B6BC6
:10354600530E0A6F450E0B6F540E0C6F200E0D6F47
:10355600410E0E6F4C0E0F6F450E106F520E116F0F
:10356600540E126F200E136F430E146F500E156F0C
:103576004D0E166F200E176F4E0E186F4F0E196FE9
:10358600570E1A6F3F0E1B6F1C6B0A0E2C6F020E26
:103596002D6F36EC0EF0200E2A6F060E2B6F750E71
:1035A6000A6F730E0B6F650E0C6F200E0D6F740E87
:1035B6000E6F6F0E0F6F200E106F730E116F650E6C
:1035C600126F740E136F3A0E146F156B0A0E2C6F72
:1035D600020E2D6F36EC0EF0180E2A6F070E2B6FAB
:1035E600700E0A6F6C0E0B6F750E0C6F730E0D6FEF
:1035F6002C0E0E6F6D0E0F6F690E106F6E0E116F23
:10360600750E126F730E136F2C0E146F4F0E156F0F
:103616004B0E166F176B0A0E2C6F020E2D6F36ECC3
:103626000EF0E2C12AF2E3C12BF2030E2C6F020E5A
:103636002D6F7DEC11F0030E2A6F020E2B6F4FECEF
:1036460011F0330E02012A6F020E2B6F030E2C6F40
:10365600020E2D6F36EC0EF0016B026B810E2A6F97
:103666000F0E2B6F070E2C6F320E2D6F010E2E6F65
:10367600F2EC0DF000C01DF2810E2A6F0F0E2B6FBB
:10368600060E2C6F960E2D6F010E2E6FF2EC0DF0BE
:103696001D51001201E00AD00251750A02E1300EF6
:1036A600011903E0014B022BD9D7D7D0000E010137
:1036B600E35D02E1C80EE25D04E3640E0201096FF8
:1036C60003D002010A0E096F810E2A6F0F0E2B6FAF
:1036D600070E2C6F960E2D6F010E2E6FF2EC0DF06D
:1036E600005246E009510101E225016E000EE32178
:1036F600026E01C0E2F102C0E3F10250130802E1DA
:103706000150880804E2880EE26F130EE36FE2C1EF
:103716002AF2E3C12BF2030E02012C6F020E2D6F6B
:103726007DEC11F0030E2A6F020E2B6F4FEC11F099
:10373600330E02012A6F020E2B6F200E0A6F200E27
:103746000B6F200E0C6F200E0D6F200E0E6F0F6B81
:103756000A0E2C6F020E2D6F36EC0EF0330E2A6F0A
:10376600020E2B6F030E2C6F020E2D6F36EC0EF031
:10377600810E2A6F0F0E2B6F060E2C6F960E2D6F75
:10378600010E2E6FF2EC0DF0005246E009510101D8
:10379600E25D016E000EE359026E01C0E2F102C065
:1037A600E3F1000E025C02E10A0E015C04E20A0E7D
:1037B600E26F000EE36FE2C12AF2E3C12BF2030EC1
:1037C60002012C6F020E2D6F7DEC11F0030E2A6F95
:1037D600020E2B6F4FEC11F0330E02012A6F020E10
:1037E6002B6F200E0A6F200E0B6F200E0C6F200E13
:1037F6000D6F200E0E6F0F6B0A0E2C6F020E2D6FC3
:1038060036EC0EF0330E2A6F020E2B6F030E2C6F62
:10381600020E2D6F36EC0EF0810E2A6F0F0E2B6FF7
:10382600050E2C6F960E2D6F010E2E6FF2EC0DF01D
:10383600005212E0E2C1E4F1E3C1E7F1020E2A6FA1
:10384600E2C12BF2D8EC0DF0030E02012A6FE7C19C
:103856002BF2D8EC0DF001D029D73C0E046E000EE9
:10386600056EE2C100F0E3C101F034EC06F000C0E1
:0C387600E2F101C0E3F1F9EC12F01200E5
:103882000201036B046B016B396B01C23AF24FEC1C
:1038920006F0026B02510325006E000E0421016E38
:1038A200260E0024F66E6F0E0120F76E000EF86EE3
:1038B200000EF8220900F5CF43F250EC03F002515A
:1038C2007F0A02E0022BE6D7800E0327000E0423B4
:1038D2000151070A02E0012BD7D789948A96899A67
:1038E200F29A9D909D92A092F298BD6A8294C26AC9
:0438F20003001200BD
:0E38F600928894909492809882908292120010
:10390400828E829CE20E0201436F50EC03F0030EA0
:103914000C6E970E0D6E0D2EFED70C2EFCD70000EC
:103924000000829E030E0C6E970E0D6E0D2EFED7B8
:103934000C2EFCD700000000828E820E0C6EDD0E71
:103944000D6E0D2EFED70C2EFCD700000000A00E2D
:10395400436F50EC03F0A20E436F50EC03F02F0EB4
:10396400436F50EC03F0240E436F50EC03F0C80E89
:10397400436F50EC03F0400E436F50EC03F0AF0E76
:08398400436F50EC03F0120048
:10398C0001C22AF202C22BF24FEC11F001C239F241
:10399C0002C23AF2B0EC06F000C003F20004036F6E
:1039AC00F29EF29C899A8A96046B0451035D0FE394
:1039BC0004510125E96E000E0221EA6EEECF2AF2C7
:1039CC002DEC0DF00451031902E0042BEED712007C
:1039DC000050086E0150006E0250016E0350026ED2
:1039EC00036A0B6A0C6A9E0E036E0A6A020E0C6E58
:0639FC0037EC02F012009E
:103A02000050086E0150006E016A026A036A0B6A76
:103A12000C6A960E036E0A6A00C001F008C000F03C
:0A3A2200086A026AD2EC11F01200EB
:103A2C000201026B000E006E0101B91908E1005091
:103A3C00B81905E10050B71902E1B651000A06E1C8
:103A4C00010EB66F000EB76FB86FB96F3F0E020163
:103A5C00016F01C200F0000E016E003600900136BD
:103A6C00003600900136B60E0024E96E000E0120DF
:103A7C00EA6EEECF05F0EECF06F0EECF07F0EECF0C
:103A8C0008F0040E046E05C000F006C001F007C07B
:103A9C0002F008C003F0045007E000360090013635
:103AAC0002360336FF0FF8D7B6C104F0B7C105F0E4
:103ABC00B8C106F0B9C107F0B9EC07F000C0BAF113
:103ACC0001C0BBF102C0BCF103C0BDF10350000842
:103ADC0008E10250000805E10150000802E1005025
:103AEC000808D8B09DD0FF0E0001B46F000E006E18
:103AFC000101BD1908E10050BC1905E10050BB19CA
:103B0C0002E1BA51080A03E1800E0001B56F000E04
:103B1C00006E0101BD1908E10050BC1905E100500F
:103B2C00BB1902E1BA51090A03E1800E0001B56F1D
:103B3C00000E006E0101BD1908E10050BC1905E131
:103B4C000050BB1902E1BA510A0A03E1C00E000190
:103B5C00B56F000E006E0101BD1908E10050BC19D3
:103B6C0005E10050BB1902E1BA510B0A03E1E00E6A
:103B7C000001B56F000E006E0101BD1908E1005087
:103B8C00BC1905E10050BB1902E1BA510C0A03E162
:103B9C00F00E0001B56F000E006E0101BD1908E1B9
:103BAC000050BC1905E10050BB1902E1BA510D0AD5
:103BBC0003E1F80E0001B56F000E006E0101BD1996
:103BCC0008E10050BC1905E10050BB1902E1BA51E3
:103BDC000E0A03E1FC0E0001B56F000E006E010130
:103BEC00BD1908E10050BC1905E10050BB1902E1F8
:103BFC00BA510F0A03E1FE0E0001B56F000E006E04
:103C0C000101BD1908E10050BC1905E10050BB19B8
:103C1C0002E1BA51100A03E1FF0E0001B56F9BD00F
:103C2C000001B56B000E006E0101BD1908E10050DA
:103C3C00BC1905E10050BB1902E1BA51000A03E1BD
:103C4C00800E0001B46F000E006E0101BD1908E179
:103C5C000050BC1905E10050BB1902E1BA51010A30
:103C6C0003E1800E0001B46F000E006E0101BD195E
:103C7C0008E10050BC1905E10050BB1902E1BA5132
:103C8C00020A03E1C00E0001B46F000E006E0101C8
:103C9C00BD1908E10050BC1905E10050BB1902E147
:103CAC00BA51030A03E1E00E0001B46F000E006E7E
:103CBC000101BD1908E10050BC1905E10050BB1908
:103CCC0002E1BA51040A03E1F00E0001B46F000ED8
:103CDC00006E0101BD1908E10050BC1905E100504E
:103CEC00BB1902E1BA51050A03E1F80E0001B46FE9
:103CFC00000E006E0101BD1908E10050BC1905E170
:103D0C000050BB1902E1BA51060A03E1FC0E000196
:103D1C00B46F000E006E0101BD1908E10050BC1912
:103D2C0005E10050BB1902E1BA51070A03E1FE0E8E
:103D3C000001B46F000E006E0101BD1908E10050C6
:103D4C00BC1905E10050BB1902E1BA51080A03E1A4
:103D5C00FF0E0001B46F02C239F2040E02013A6F79
:103D6C004FEC06F0B5C02AF26FEC0DF02A6B6FEC3D
:103D7C000DF002C239F2050E3A6F4FEC06F0B4C0EA
:103D8C002AF26FEC0DF02A6B6FEC0DF0020E02278D
:0E3D9C000151000A03E0FF0E01275BD6120062
:103DAA0002010251800A02E1000E011912E103C266
:103DBA00E1FF04C2E2FF2D0EE66E330EE66E320E0E
:103DCA00E66E370EE66E360EE66E380EE66EE66A7A
:103DDA0061D0076B800E0219006E800E005C02E152
:103DEA00000E015D08E2FF0E076F01510008016F26
:103DFA000251000E025703C2E1FF04C2E2FF200E85
:103E0A00E66E200EE66E200EE66E200EE66E200EA0
:103E1A00E66E300EE66EE66A050E0325056F000EA5
:103E2A000421066F000E021902E1000E01192AE0B0
:103E3A000A0E046E000E056E01C200F002C201F005
:103E4A0074EC0DF008C000F009C001F0300E002635
:103E5A0005C2E1FF06C2E2FF00C0E6FF0A0E046ED9
:103E6A00000E056E01C200F002C201F074EC0DF002
:103E7A0000C001F201C002F2010E0201055F000E4C
:103E8A00065BD0D7075306E005C2E1FF06C2E2FF90
:063E9A002D0EE66E120081
:103EA0000B6A0350D8B496EF1FF002500A6E028ED0
:103EB0008E0E035E03AE9AEF1FF0036C080E035CD8
:103EC000D8A075EF1FF0036E013602C001F0026A40
:103ED000080E035CD8A075EF1FF0036E0136016A6F
:103EE0000350D8A4D8907FEF1FF00350D8B47FEFD1
:103EF0001FF0D89002320132032E79EF1FF00BBC75
:103F000001A08CEF1FF0D8A08CEF1FF0012AD8B4CD
:103F1000022A02BEA9EF1FF00AAEAFEF1FF0021E89
:103F2000011E012AD8B4022AAFEF1FF0026A016A0B
:103F3000AFEF1FF00B800BAEB3EF1FF0026A0AAEBB
:103F4000B3EF1FF0FF0E026E016E0A360232B3EFBE
:103F50001FF0010E0C6E80EC03F0B5EF1FF0000EA9
:103F60000C6EB5EF1FF0FF0E0C6E0150006E02508C
:043F7000016E1200CC
:103F7400C26A070EC012C08E01C200F00036009063
:103F8400003600900050C212C2808FEC00F0C28252
:103F9400C2A202D00000FCD7C4CF01F0006A00C066
:103FA40002F201C003F2C35002010213000E031314
:0C3FB400C29002C200F003C201F0120033
:103FC0000201286B01C200F002C201F003C202F03C
:103FD00004C203F084EC0BF000C007F201C008F249
:103FE00002C009F203C00AF2046A056A066A076A97
:103FF00001C200F002C201F003C202F004C203F0E9
:10400000D0EC01F0FF0ED8B0000E006E005202E0BE
:10401000FF0E286F07C22AF208C22BF209C22CF247
:104020000AC22DF2100E2E6F020E2F6F6BEC0CF0E9
:1040300007C200F008C201F009C202F00AC203F090
:10404000A1EC12F000C004F001C005F002C006F0BF
:1040500003C007F001C200F002C201F003C202F087
:1040600004C203F0C3EC12F0000E046E500E056E95
:10407000430E066E8F0E076E0EEC12F084EC0BF002
:1040800000C007F201C008F202C009F203C00AF240
:10409000800E0318046E800E045C08E1000E025CC2
:1040A00005E1000E015C02E1000E005C14E2006A12
:1040B000016A026A036A0751005E0851015A0951F8
:1040C000025A0A51035A00C007F201C008F202C0A6
:1040D00009F203C00AF207C22AF208C22BF209C28F
:1040E0002CF20AC22DF21C0E2E6F020E2F6F6BECFB
:1040F0000CF00B6B0C6B0D6B0E6B05C2E1FF06C277
:10410000E2FF200EE66E200EE66E200EE66E200E1A
:10411000E66E200EE66E200EE66E200EE66E200E97
:10412000E66E200EE66E200EE66E300EE66EE66A55
:1041300001C200F002C201F003C202F004C203F0A7
:1041400084EC0BF000C007F201C008F202C009F2D3
:1041500003C00AF2000E296F031808E12951021862
:1041600005E12951011802E10050000AFF0ED8A410
:10417000000E296F046A056A066A076A01C200F028
:1041800002C201F003C202F004C203F0D0EC01F05D
:10419000FF0ED8B0000E006E295100160AE005C2CD
:1041A000E1FF06C2E2FF2D0EE66E010E0B6F000E60
:1041B0000C6F10C20FF20F51200A0FE10D4B0E2BA6
:1041C000100E006E020E016E0D510024E96E0E51AC
:1041D0000120EA6EEECF0FF2EED70F51000A19E080
:1041E0000B510525E16E0C510621E26E0FC2E6FF70
:1041F0000D4B0E2B0B4B0C2B100E006E020E016E96
:104200000D510024E96E0E510120EA6EEECF0FF23F
:10421000E4D72851000AFF0ED8A4000E016E000E4C
:104220000C1902E1000E0B19FF0ED8A4000E006E4F
:10423000015000160AE00B510525E16E0C510621D4
:10424000E26E300EE66E0B4B0C2B000E0C1902E1E9
:10425000010E0B19FF0ED8A4000E006E2851001697
:104260000AE00B510525E16E0C510621E26E300E7D
:10427000E66E0B4B0C2B0B510525E16E0C51062104
:10428000E26E2E0EE66E0B4B0C2B060E0D6F000E23
:104290000E6F22C20FF20F51000A1EE00F51200ACA
:1042A00002E1300E0F6F0B510525E16E0C51062116
:1042B000E26E0FC2E6FF0D4B0E2B0B4B0C2B1C0EB0
:1042C000006E020E016E0D510024E96E0E510120A8
:1042D000EA6EEECF0FF2DFD70B510525E16E0C51E0
:0842E0000621E26EE66A1200FD
:1042E8007F0E0201045D016E000E026E000E025682
:1042F80001C009F202C00AF2800E0218006E800E98
:10430800005C02E1000E015C22E2046A056A066AAA
:10431800076A01C200F002C201F003C202F004C23F
:1043280003F0D0EC01F0FF0ED8B0000E006E005282
:1043380009E0000E056F000E066F800E076F7F0EF6
:10434800086F04D0056B066B076B086B57D0000E1F
:10435800006E0A51005C02E10951180809E201C225
:1043680005F202C206F203C207F204C208F246D0FE
:1043780001C200F002C201F003C202F004C203F05D
:1043880084EC0BF0A1EC12F000C005F201C006F2BB
:1043980002C007F203C008F205C204F006C205F025
:1043A80007C206F008C207F001C200F002C201F01D
:1043B80003C202F004C203F0D0EC01F0FF0ED8B043
:1043C800000E006E00521AE0000E046E000E056E1C
:1043D800000E066E7F0E076E05C200F006C201F0E1
:1043E80007C202F008C203F0C3EC12F000C005F2E5
:1043F80001C006F202C007F203C008F205C200F0CD
:0E44080006C201F007C202F008C203F0120063
:104416000B6A0C6A0A6A086A0350D8B493EF22F052
:10442600028E9E0E035E03BE1EEF22F0D8B41EEF70
:1044360022F083EF22F0036C080E035CD8A050EF45
:1044460022F0036E083600C008F001C000F002C07A
:1044560001F0026A080E035CD8A050EF22F0036E4A
:10446600083600C008F001C000F0016A080E035CBF
:10447600D8A050EF22F0036E083600C008F0006A9C
:10448600080E035CD8A050EF22F0036E0836086AC7
:104496000350D8A4D8905CEF22F00350D8B45CEF58
:1044A60022F0D8900232013200320832032E54EF45
:1044B60022F00BBC08A06DEF22F0D8A06DEF22F021
:1044C600082AD8B4002AD8B4012AD8B4022A02BECF
:1044D60097EF22F00AAE93EF22F0021E011E001E95
:1044E600081E082AD8B4002AD8B4012AD8B4022A49
:1044F60093EF22F0026A016A006A086A93EF22F0DB
:104506000B800BAE9DEF22F0026A0AAE9DEF22F001
:10451600026E016E006E086E0A3602329DEF22F0C0
:10452600000E0C6A9EEF22F0010E0C6E80EC03F07A
:104536009EEF22F0FF0E0250036E0150026E0050F5
:08454600016E0850006E120026
:10454E00000E0101DB5D08E1010EDA5D05E1860E6C
:10455E00D95D02E1A00ED85DD8B0D1D0360E0201E1
:10456E002A6F020E2B6F2C0E016F026B010E2C6F39
:10457E00020E2D6F65EC0EF0100E046E270E056EFA
:10458E00000E066E076ED8C100F0D9C101F0DAC177
:10459E0002F0DBC103F0B9EC07F000C0CFF101C0AF
:1045AE00D0F10A0E2A6F010E2B6F00C02CF225ECF3
:1045BE000FF0160E396F010E3A6F4FEC06F0010137
:1045CE00E66BFE0EE625F66E750EF76E000EF72202
:1045DE00000EF86E000EF8220900F5CF43F250ECF3
:1045EE0003F00101E6510B0A02E0E62BEAD7160EA4
:1045FE000201396F020E3A6F4FEC06F00C0E0101FC
:10460E00E66FFE0EE625F66E750EF76E000EF722BD
:10461E00000EF86E000EF8220900F5CF43F250ECB2
:10462E0003F00101E651170A02E0E62BEAD7160E57
:10463E0002012A6F020E2B6F290E016F026B010E03
:10464E002C6F020E2D6F65EC0EF0E80E046E030E4D
:10465E00056E000E066E076ED8C100F0D9C101F0CE
:10466E00DAC102F0DBC103F0B9EC07F00A0E046EFA
:10467E00000E056E066E076EB9EC07F008C000F06E
:10468E0009C001F00AC002F00BC003F000C0CFF168
:10469E0001C0D0F11B0E2A6F010E2B6F00C02CF241
:1046AE0025EC0FF0640E046E000E056E066E076E9E
:1046BE00D8C100F0D9C101F0DAC102F0DBC103F0BC
:1046CE00B9EC07F00A0E046E000E056E066E076E4C
:1046DE00B9EC07F008C000F009C001F00AC002F002
:1046EE000BC003F000C0CFF101C0D0F1270E2A6F2E
:1046FE00010E2B6F00C02CF225EC0FF0B5D1000E81
:10470E000101DB5D08E10F0EDA5D05E1420ED95DB8
:10471E0002E1400ED85DD8B0D3D0360E02012A6F1A
:10472E00020E2B6F2C0E016F026B010E2C6F020E00
:10473E002D6F65EC0EF0A00E046E860E056E010E4A
:10474E00066E000E076ED8C100F0D9C101F0DAC1B5
:10475E0002F0DBC103F0B9EC07F000C0CFF101C0ED
:10476E00D0F10A0E2A6F010E2B6F00C02CF225EC31
:10477E000FF0100E046E270E056E000E066E076EFD
:10478E00D8C100F0D9C101F0DAC102F0DBC103F0EB
:10479E00B9EC07F00A0E046E000E056E066E076E7B
:1047AE00B9EC07F008C000F009C001F00AC002F031
:1047BE000BC003F000C0CFF101C0D0F1160E2A6F6E
:1047CE00010E2B6F00C02CF225EC0FF0220E396F6C
:1047DE00010E3A6F4FEC06F00101E66BFE0EE62578
:1047EE00F66E750EF76E000EF722000EF86E000EC6
:1047FE00F8220900F5CF43F250EC03F00101E65127
:10480E000B0A02E0E62BEAD7220E0201396F020EE6
:10481E003A6F4FEC06F00C0E0101E66FFE0EE62528
:10482E00F66E750EF76E000EF722000EF86E000E85
:10483E00F8220900F5CF43F250EC03F00101E651E6
:10484E00170A02E0E62BEAD7220E02012A6F020EA9
:10485E002B6F290E016F026B010E2C6F020E2D6F46
:10486E0065EC0EF0E80E046E030E056E000E066E7D
:10487E00076ED8C100F0D9C101F0DAC102F0DBC178
:10488E0003F0B9EC07F00A0E046E000E056E066E0C
:10489E00076EB9EC07F008C000F009C001F00AC0BD
:1048AE0002F00BC003F000C0CFF101C0D0F1270E13
:1048BE002A6F010E2B6F00C02CF225EC0FF0D4D016
:1048CE000201360E2A6F020E2B6F2B0E016F026B3A
:1048DE00010E2C6F020E2D6F65EC0EF0800E046E25
:1048EE00960E056E980E066E000E076ED8C100F07D
:1048FE00D9C101F0DAC102F0DBC103F0B9EC07F067
:10490E0000C0CFF101C0D0F10A0E2A6F010E2B6F3D
:10491E0000C02CF225EC0FF0160E396F010E3A6F17
:10492E004FEC06F00101E66BFE0EE625F66E750EF7
:10493E00F76E000EF722000EF86E000EF822090038
:10494E00F5CF43F250EC03F00101E6510B0A02E001
:10495E00E62BEAD7160E0201396F020E3A6F4FECB4
:10496E0006F00C0E0101E66FFE0EE625F66E750ED4
:10497E00F76E000EF722000EF86E000EF8220900F8
:10498E00F5CF43F250EC03F00101E651170A02E0B5
:10499E00E62BEAD7160E02012A6F020E2B6F290E96
:1049AE00016F026B010E2C6F020E2D6F65EC0EF077
:1049BE00400E046E420E056E0F0E066E000E076E52
:1049CE00D8C100F0D9C101F0DAC102F0DBC103F0A9
:1049DE00B9EC07F00A0E046E000E056E066E076E39
:1049EE00B9EC07F008C000F009C001F00AC002F0EF
:1049FE000BC003F000C0CFF101C0D0F11B0E2A6F27
:104A0E00010E2B6F00C02CF225EC0FF0A00E046EE1
:104A1E00860E056E010E066E000E076ED8C100F0F2
:104A2E00D9C101F0DAC102F0DBC103F0B9EC07F035
:104A3E000A0E046E000E056E066E076EB9EC07F0D8
:104A4E0008C000F009C001F00AC002F00BC003F06C
:104A5E0000C0CFF101C0D0F1270E2A6F010E2B6FCF
:0A4A6E0000C02CF225EC0FF012003E
:104A780002012A6B2B6B4D0E016F410E026F580E0F
:104A8800036F200E046F430E056F500E066F4D0E18
:104A9800076F3A0E086F096B010E2C6F020E2D6F0F
:104AA80036EC0EF0BEC12AF2BFC12BF2C0C12CF207
:104AB800C1C12DF2C30E2E6F010E2F6FBAEC0EF08E
:104AC800C30E2A6F010E2B6F4FEC11F0320E02014C
:104AD8002A6F2B6BC30E2C6F010E2D6F36EC0EF068
:104AE8002A6B010E2B6F430E016F460E026F3D0EAF
:104AF800036F300E046F2E0E056F300E066F076BB6
:104B0800010E2C6F020E2D6F36EC0EF0640E046E43
:104B1800000E056ECEC100F0000E016E34EC06F0FA
:104B28000A0E046E000E056E34EC06F008C000F0A4
:104B380009C001F000C0CFF101C0D0F1240E396FD7
:104B4800010E3A6F4FEC06F00101CF51300F020110
:104B5800396F00EC06F0436B50EC03F00A0E046E5C
:104B6800000E056ECEC100F0000E016E34EC06F0AA
:104B78000A0E046E000E056E34EC06F008C000F054
:104B880009C001F000C0CFF101C0D0F10050300FD2
:104B9800396F00EC06F0436B50EC03F00A0E046E1C
:104BA800000E056ECEC100F0000E016E34EC06F06A
:104BB80008C000F009C001F000C0CFF101C0D0F179
:104BC8000050300F396F00EC06F02A6B020E2B6F85
:104BD800420E016F470E026F3D0E036F046B010E0C
:104BE8002C6F020E2D6F36EC0EF0E5C12AF2EA0E9C
:104BF8002B6F010E2C6FC7EC12F0140E2A6F020EE9
:104C08002B6FEA0E2C6F010E2D6F36EC0EF0320E64
:104C18002A6F020E2B6F430E016F500E026F4D0E5E
:104C2800036F046B010E2C6F020E2D6F36EC0EF025
:104C38002A6B030E2B6F530E016F510E026F3D0E40
:104C4800036F046B010E2C6F020E2D6F36EC0EF005
:104C5800C2C12AF2EA0E2B6F010E2C6FC7EC12F0BC
:104C6800140E2A6F030E2B6FEA0E2C6F010E2D6F98
:104C780036EC0EF0320E2A6F030E2B6F630E016FA7
:104C88006D0E026F5E0E036F320E046F056B010E20
:104C98002C6F020E2D6F36EC0EF02A6B040E2B6F64
:104CA800440E016F4C0E026F3D0E036F046B010E34
:104CB8002C6F020E2D6F36EC0EF0D1C12AF2EA0EDF
:104CC8002B6F010E2C6FC7EC12F0140E2A6F040E16
:104CD8002B6FEA0E2C6F010E2D6F36EC0EF0320E94
:104CE8002A6F040E2B6F430E016F500E026F4D0E8C
:104CF800036F046B010E2C6F020E2D6F36EC0EF055
:104D08002A6B050E2B6F440E016F540E026F3D0E79
:104D1800036F046B010E2C6F020E2D6F36EC0EF034
:104D2800D4C12AF2EA0E2B6F010E2C6FC7EC12F0D9
:104D3800140E2A6F050E2B6FEA0E2C6F010E2D6FC5
:104D480036EC0EF0320E2A6F050E2B6F6D0E016FCA
:104D5800690E026F630E036F720E046F6F0E056F9C
:104D6800200E066F730E076F650E086F630E096FCE
:104D78006F0E0A6F6E0E0B6F640E0C6F730E0D6F55
:104D88000E6B010E2C6F020E2D6F36EC0EF00B0E13
:104D98000B6E260E0C6E5D0E0D6E0D2EFED70C2EB4
:104DA800FCD70B2EFAD700000000F9EC12F0120025
:104DB800F29E89848A96899A8A9E938EF9EC12F0DB
:104DC800200E2A6F060E2B6F750E016F730E026F81
:104DD800650E036F200E046F740E056F6F0E066F5D
:104DE800200E076F730E086F650E096F740E0A6F39
:104DF8003A0E0B6F0C6B010E2C6F020E2D6F36ECFA
:104E08000EF0180E2A6F070E2B6F700E016F6C0EC6
:104E1800026F750E036F730E046F2C0E056F6D0E07
:104E2800066F690E076F6E0E086F750E096F730EA9
:104E38000A6F2C0E0B6F4F0E0C6F4B0E0D6F0E6B17
:104E4800010E2C6F020E2D6F36EC0EF02A6B2B6BB9
:104E5800430E016F460E026F3D0E036F300E046F56
:104E68002E0E056F300E066F076B010E2C6F020EAB
:104E78002D6F36EC0EF0640E046E000E056ECEC17A
:104E880000F0000E016E34EC06F00A0E046E000EFF
:104E9800056E34EC06F008C000F009C001F000C04F
:104EA800CFF101C0D0F1240E396F3A6B4FEC06F008
:104EB8000101CF51300F0201396F00EC06F0436B4E
:104EC80050EC03F00A0E046E000E056ECEC100F021
:104ED800000E016E34EC06F00A0E046E000E056E2C
:104EE80034EC06F008C000F009C001F000C0CFF1B2
:104EF80001C0D0F10050300F396F00EC06F0436B61
:104F080050EC03F00A0E046E000E056ECEC100F0E0
:104F1800000E016E34EC06F008C000F009C001F084
:104F280000C0CFF101C0D0F10050300F396F00EC54
:104F380006F0436B50EC03F00201810E2A6F0F0E4E
:104F48002B6F070E2C6F960E2D6F010E2E6FF2EC45
:104F58000DF0005268E00101CE2BCE51FA08D8A01E
:104F6800CE07640E046E000E056ECEC100F0000E72
:104F7800016E34EC06F00A0E046E000E056E34EC79
:104F880006F008C000F009C001F000C0CFF101C070
:104F9800D0F1240E0201396F3A6B4FEC06F0010193
:104FA800CF51300F0201396F00EC06F0436B50EC23
:104FB80003F00A0E046E000E056ECEC100F0000E5E
:104FC800016E34EC06F00A0E046E000E056E34EC29
:104FD80006F008C000F009C001F000C0CFF101C020
:104FE800D0F10050300F396F00EC06F0436B50ECF5
:104FF80003F00A0E046E000E056ECEC100F0000E1E
:10500800016E34EC06F008C000F009C001F000C0E1
:10501800CFF101C0D0F10050300F396F00EC06F02D
:10502800436B50EC03F0810E2A6F0F0E2B6F060EA8
:105038002C6F960E2D6F010E2E6FF2EC0DF00052B4
:1050480068E00101CE07010ECE5DD8A0CE2B640E1C
:10505800046E000E056ECEC100F0000E016E34EC39
:1050680006F00A0E046E000E056E34EC06F008C059
:1050780000F009C001F000C0CFF101C0D0F1240E4A
:105088000201396F3A6B4FEC06F00101CF51300F36
:105098000201396F00EC06F0436B50EC03F00A0E86
:1050A800046E000E056ECEC100F0000E016E34ECE9
:1050B80006F00A0E046E000E056E34EC06F008C009
:1050C80000F009C001F000C0CFF101C0D0F10050DC
:1050D800300F396F00EC06F0436B50EC03F00A0E0A
:1050E800046E000E056ECEC100F0000E016E34ECA9
:1050F80006F008C000F009C001F000C0CFF101C0FF
:10510800D0F10050300F396F00EC06F0436B50ECD3
:1051180003F0810E2A6F0F0E2B6F050E2C6F960E63
:105128002D6F010E2E6FF2EC0DF0005210E02A6B7D
:10513800CEC12BF2D8EC0DF0820E0C6EDD0E0D6E8A
:105148000D2EFED70C2EFCD70000000001D0F4D69F
:1051580002012A6B010E2B6F420E016F470E026F80
:105168003D0E036F200E046F200E056F200E066F94
:10517800200E076F200E086F200E096F200E0A6F91
:10518800200E0B6F200E0C6F200E0D6F200E0E6F71
:10519800200E0F6F200E106F200E116F430E126F2E
:1051A800500E136F4D0E146F156B010E2C6F020EFF
:1051B8002D6F36EC0EF0E5C12AF2EA0E2B6F010EC8
:1051C8002C6FC7EC12F0140E2A6F010E2B6FEA0E2B
:1051D8002C6F010E2D6F36EC0EF00201810E2A6F36
:1051E8000F0E2B6F070E2C6F960E2D6F010E2E6F64
:1051F800F2EC0DF000521AE00101E52BE551FE0832
:1052080002E2FE0EE56FE5C12AF2EA0E02012B6FFB
:10521800010E2C6FC7EC12F0140E2A6F010E2B6FC3
:10522800EA0E2C6F010E2D6F36EC0EF0810E2A6FF0
:105238000F0E2B6F060E2C6F960E2D6F010E2E6F14
:10524800F2EC0DF000521AE00101E507030EE55DEE
:1052580002E2030EE56FE5C12AF2EA0E02012B6FA6
:10526800010E2C6FC7EC12F0140E2A6F010E2B6F73
:10527800EA0E2C6F010E2D6F36EC0EF0810E2A6FA0
:105288000F0E2B6F050E2C6F960E2D6F010E2E6FC5
:10529800F2EC0DF0005249E0E5C100F0C3EC11F06A
:1052A80000C02AF201C02BF202C02CF203C02DF27A
:1052B80065EC0AF0CD0E046ECC0E056E140E066E6B
:1052C800810E076E0EEC12F0000E046E000E056ED5
:1052D800400E066E800E076E8EEC03F01DEC0CF08F
:1052E80000C0D1F1070E02012A6FE5C12BF2D8ECFC
:1052F8000DF0820E0C6EDD0E0D6E0D2EFED70C2EEF
:10530800FCD700000000080E02012A6FD1C12BF261
:10531800D8EC0DF0820E0C6EDD0E0D6E0D2EFED744
:105328000C2EFCD70000000001D057D702012A6BD1
:10533800020E2B6F530E016F510E026F3D0E036F5D
:10534800200E046F200E056F200E066F200E076FCB
:10535800200E086F200E096F200E0A6F200E0B6FAB
:10536800200E0C6F200E0D6F200E0E6F200E0F6F8B
:10537800200E106F630E116F6D0E126F5E0E136F9D
:10538800320E146F156B010E2C6F020E2D6F36EC5A
:105398000EF0C2C12AF2EA0E2B6F010E2C6FC7EC79
:1053A80012F0140E2A6F020E2B6FEA0E2C6F010EEC
:1053B8002D6F36EC0EF00201810E2A6F0F0E2B6F47
:1053C800070E2C6F960E2D6F010E2E6FF2EC0DF05E
:1053D80000521AE00101C22BC251FE0802E2FE0E81
:1053E800C26FC2C12AF2EA0E02012B6F010E2C6FA6
:1053F800C7EC12F0140E2A6F020E2B6FEA0E2C6FF8
:10540800010E2D6F36EC0EF0810E2A6F0F0E2B6FEA
:10541800060E2C6F960E2D6F010E2E6FF2EC0DF00E
:1054280000521AE00101C207030EC25D02E2030E38
:10543800C26FC2C12AF2EA0E02012B6F010E2C6F55
:10544800C7EC12F0140E2A6F020E2B6FEA0E2C6FA7
:10545800010E2D6F36EC0EF0810E2A6F0F0E2B6F9A
:10546800050E2C6F960E2D6F010E2E6FF2EC0DF0BF
:10547800005211E0060E2A6FC2C12BF2D8EC0DF0D3
:10548800820E0C6EDD0E0D6E0D2EFED70C2EFCD787
:105498000000000001D08FD702012A6B030E2B6F8A
:1054A800440E016F540E026F3D0E036F200E046F01
:1054B800200E056F200E066F200E076F200E086F56
:1054C800200E096F200E0A6F200E0B6F200E0C6F36
:1054D800200E0D6F200E0E6F200E0F6F200E106F16
:1054E8003B0E116F530E126F650E136F630E146F20
:1054F800156B010E2C6F020E2D6F36EC0EF0D4C119
:105508002AF2EA0E2B6F010E2C6FC7EC12F0140E64
:105518002A6F030E2B6FEA0E2C6F010E2D6F36ECDF
:105528000EF00201810E2A6F0F0E2B6F070E2C6FE3
:10553800960E2D6F010E2E6FF2EC0DF000521AE050
:105548000101D42BD451FB0802E2FA0ED46FD4C166
:105558002AF2EA0E02012B6F010E2C6FC7EC12F033
:10556800140E2A6F030E2B6FEA0E2C6F010E2D6F8F
:1055780036EC0EF0810E2A6F0F0E2B6F060E2C6F75
:10558800960E2D6F010E2E6FF2EC0DF000521AE000
:105598000101D407020ED45D02E2010ED46FD4C11A
:1055A8002AF2EA0E02012B6F010E2C6FC7EC12F0E3
:1055B800140E2A6F030E2B6FEA0E2C6F010E2D6F3F
:1055C80036EC0EF0810E2A6F0F0E2B6F050E2C6F26
:1055D800960E2D6F010E2E6FF2EC0DF0005211E0B9
:1055E8000A0E2A6FD4C12BF2D8EC0DF0820E0C6E85
:1055F800DD0E0D6E0D2EFED70C2EFCD70000000020
:1056080001D08FD702012A6B040E2B6F550E016F44
:10561800530E026F420E036F200E046F640E056F67
:10562800610E066F740E076F610E086F3A0E096FF0
:10563800430E0A6F500E0B6F4D0E0C6F0D6B010E63
:105648002C6F020E2D6F36EC0EF00101D26B810E1D
:1056580002012A6F0F0E2B6F070E2C6F960E2D6FFF
:10566800010E2E6FF2EC0DF0005213E0360E2A6F89
:10567800040E2B6F430E016F500E026F4D0E036F19
:10568800046B010E2C6F020E2D6F36EC0EF001012B
:10569800D26B810E02012A6F0F0E2B6F060E2C6F34
:1056A800960E2D6F010E2E6FF2EC0DF0005214E0E5
:1056B800360E2A6F040E2B6F420E016F710E026FA9
:1056C800200E036F046B010E2C6F020E2D6F36EC4B
:1056D8000EF0010E0101D26F810E02012A6F0F0E2A
:1056E8002B6F050E2C6F960E2D6F010E2E6FF2ECA0
:1056F8000DF0005211E0090E2A6FD2C12BF2D8EC3E
:105708000DF0820E0C6EDD0E0D6E0D2EFED70C2EDA
:10571800FCD70000000001D09AD702012A6B050EC1
:105728002B6F530E016F6D0E026F610E036F720EB9
:10573800046F740E056F200E066F420E076F610E20
:10574800086F630E096F6B0E0A6F6C0E0B6F690E94
:105758000C6F670E0D6F680E0E6F740E0F6F3F0E95
:10576800106F200E116F590E126F450E136F530EE6
:10577800146F156B010E2C6F020E2D6F36EC0EF0A8
:10578800010E0101D36F810E02012A6F0F0E2B6FDC
:10579800070E2C6F960E2D6F010E2E6FF2EC0DF08A
:1057A800005214E0660E2A6F050E2B6F590E016F1A
:1057B800450E026F530E036F046B010E2C6F020E21
:1057C8002D6F36EC0EF0010E0101D36F810E020130
:1057D8002A6F0F0E2B6F060E2C6F960E2D6F010E73
:1057E8002E6FF2EC0DF0005213E0660E2A6F050ED4
:1057F8002B6F4E0E016F4F0E026F200E036F046B5E
:10580800010E2C6F020E2D6F36EC0EF00101D36BDA
:10581800810E02012A6F0F0E2B6F050E2C6F960E4C
:105828002D6F010E2E6FF2EC0DF0005211E0100EEC
:105838002A6FD3C12BF2D8EC0DF0820E0C6EDD0E60
:105848000D6E0D2EFED70C2EFCD70000000001D0E7
:105858009AD7F9EC12F00101DC6BDD6BDE6BDF6BC4
:10586800E06BE16BD86BD96BDA6BDB6BD76B289885
:065878009E90FF001200EB
:10587E003C0E0201396F020E3A6F4FEC06F0010139
:10588E00D56BD66BEA0ED525F66E760ED621F76E53
:10589E00000EF86E000EF8220900F5CF43F250EC20
:1058AE0003F0000E0101D61902E1130ED51903E023
:0858BE00D54BD62BE7D71200F1
:1058C6003C0E0201396F020E3A6F4FEC06F00101F1
:1058D600D56BD66BD60ED525F66E760ED621F76E1F
:1058E600000EF86E000EF8220900F5CF43F250ECD8
:1058F60003F0000E0101D61902E1130ED51903E0DB
:08590600D54BD62BE7D71200A8
:10590E003B0E0101E96F289AE86B2892DC6BDD6B88
:10591E00DE6BDF6BE06BE16B2A6A2B6A2C6A2D6AF9
:10592E002E6A2F6A306A316AD76B28980A0EE26F98
:10593E00000EE36F296A266A276A2890366A376A4C
:10594E0028940001B46BB56B356A326A336A346AD7
:10595E008496E10E936E010E8A6E300E946EF26A8C
:10596E006D966F86D2989280928292949286929A37
:10597E00100E0201016F000E026F7BEC19F000C0D9
:10598E00D3F10050010A02E1898401D089948B94ED
:10599E00899A1D0EC16E010EC26E9F9482B828D0D8
:1059AE00346A82BA13D07C0ECB6E070ECA6E040E0A
:1059BE00BE6E3C0EBD6EBE0E1A6EB40E1B6EAA0EE1
:1059CE001C6EBE0E196EBE0E166E12D07C0ECB6EF7
:1059DE00070ECA6E070EBE6E1C0EBD6E960E1A6EAA
:1059EE008C0E1B6E820E1C6E960E196E960E166E19
:1059FE0082A80CD0010E346EBE0E1A6EB40E1B6E43
:105A0E00AA0E1C6EBE0E196EBE0E166E016B026BCA
:105A1E007BEC19F000C0CEF1010E016F000E026F8B
:105A2E007BEC19F000C017F0020E016F000E026F32
:105A3E007BEC19F000C0E4F1030E016F000E026F53
